:020000040800F2
:10000000C0060020F1010008E3330008932F000828
:10001000E1330008050C0008F53E00080000000070
:10002000000000000000000000000000E7330008AE
:10003000B70C000800000000E5330008E9330008B1
:100040000B0200080B0200080B0200080B0200085C
:100050000B0200080B0200080B0200080B0200084C
:100060000B0200080B0200080B0200080B0200083C
:100070000B0200080B0200080B0200080B0200082C
:100080000B0200080B0200080B0200080B0200081C
:100090000B0200080B0200080B0200080B0200080C
:1000A0000B0200080B0200080B0200080B020008FC
:1000B0000B0200080B0200080B0200080B020008EC
:1000C0000B0200080B0200080B0200080B020008DC
:1000D0000B0200080B0200080B0200080B020008CC
:1000E0000B0200080B0200080B0200080B020008BC
:1000F0000B0200080B0200080B0200080B020008AC
:100100000B0200080B0200080B0200080B0200089B
:100110000B0200080B0200080B0200080B0200088B
:100120000B0200080B0200080B0200080B0200087B
:100130000B0200080B0200080B0200080B0200086B
:100140000B0200080B0200080B0200080000000070
:10015000000000000000000000000000000000009F
:100160000000000000000000000000000B0200087A
:100170000B0200080B0200080B0200080B0200082B
:100180000B0200080B0200080B0200080B0200081B
:100190000B020008000000000B0200080B02000820
:1001A0000B0200080B0200080B0200080B020008FB
:1001B0000B0200080B0200080B0200080B020008EB
:1001C0000B0200080B0200080B0200080B020008DB
:1001D0000B0200080B020008DFF810D000F076FADE
:1001E000004800474D490008AFF30080C0060020DA
:1001F0000648804706480047FEE7FEE7FEE7FEE7C1
:10020000FEE7FEE7FEE7FEE7FEE7FEE755340008FF
:10021000D90100082DE9F05F0546002092469B4673
:1002200088460646814640241BE02846414647460C
:10023000224600F083F853465A46C01A914110D323
:1002400011461846224600F06AF82D1A67EB01089D
:100250004F4622460120002100F061F817EB00090B
:100260004E41201EA4F10104DFDC484631462A46F7
:100270004346BDE8F09F40EA01039B0703D009E035
:1002800008C9121F08C0042AFAD203E011F8013B82
:1002900000F8013B521EF9D27047D2B201E000F8DB
:1002A000012B491EFBD270470022F6E710B513461A
:1002B0000A4604461946FFF7F0FF204610BD421CCF
:1002C00010F8011B0029FBD1801A704700F0004292
:1002D00030F000400AD0C10D01F56071C0F3160086
:1002E00042EA0151C208400711437047002001460D
:1002F000704730B50B46014600202022012409E05A
:1003000021FA02F59D4205D303FA02F5491B04FACE
:1003100002F52844151EA2F10102F1DC30BD202AAD
:1003200004DB203A00FA02F1002070479140C2F14C
:10033000200320FA03F3194390407047202A04DB7E
:10034000203A21FA02F00021704721FA02F3D0404E
:10035000C2F1200291400843194670472DE9FE4F33
:10036000804681EA0300C00F0C46009021F0004156
:1003700023F00045B8EB0200A94105D240462146D2
:1003800090461C460B46024623F00040104347D0DF
:10039000270DC7F30A00C3F30A510290401A0190D7
:1003A00040286BDAC3F3130040F4801B0098924698
:1003B00020B10023D2EB030A63EB0B0B01985946E3
:1003C000C0F140025046FFF7AAFF06460D465046D0
:1003D0005946019A00F08CF910EB080061410024A5
:1003E00087EA115284EAE7731A4340D0009A62B355
:1003F000019A012A4FEA075215DC001B61EB02014A
:100400004FF0004202EA0752CDE90042001C41F5DC
:10041000801132462B4600F08CF903B0BDE8F08F16
:1004200040462146F9E7001B61EB0201001C41F543
:10043000801300185B412018A2F5001747EB030159
:1004400040EAD570B6196D4111E06D084FEA3606E5
:1004500045EAC0754FEA0752001B61EB0201001C20
:1004600041F5801149084FEA3000001951413246E8
:100470002B4603B0BDE8F04F00F04CB900980122C4
:1004800040000023D0EB020263EBE07300982146AA
:100490004FEAE074B8EB000061EB0401E9E783F098
:1004A00000435BE781F0004158E72DE9FE4F81EA08
:1004B000030404F0004421F0004100944FF0000BCD
:1004C00023F0004350EA01045ED052EA03045BD0FB
:1004D000C3F30A54C1F30A552C44A4F2F334019433
:1004E000A0FB0254C1F3130141F48011C3F31303C1
:1004F00043F4801301FB024400FB034E840A970A75
:1005000044EA815447EA8357A4FB076802958D0AA1
:1005100005FB07854FEA932C04FB0C542705029D2D
:100520004FEA065847EA1637B5EB08056EEB070C9D
:10053000870E920E47EA811742EA8312A7FB020157
:10054000B6EB0B0164EB00042B0D43EA0C335E1891
:1005500044EB1C50DA465146E7FB0201C5F3130495
:100560004FEA0B3343EA14534FEA0432019C43EA47
:100570000603A4F10C040294009CCDE900B400F041
:10058000D8F803B0BDE8F08F00200146F9E72DE967
:10059000F04D81EA030404F0004B21F000451446BD
:1005A0004FF0000A23F0004150EA050220D054EA3F
:1005B00001021DD0C5F30A570246C5F31303C1F368
:1005C0001300C1F30A5640F4801543F48013A7EBDF
:1005D0000608101BD64608F2FD3873EB050002D35F
:1005E00008F1010801E092185B41B8F1000F03DA4D
:1005F00000200146BDE8F08D00204FF48011064632
:1006000084460EE0171B73EB050705D3121B63EB43
:10061000050306434CEA010C49084FEA30009218E2
:100620005B4150EA0107EDD152EA030012D082EAA1
:10063000040083EA0501084305D0101BAB4106D234
:100640000122002306E000224FF0004302E06FF099
:10065000010253101AEB06004CEB085110EB0A0094
:1006600041EB0B01BDE8F04D00F054B8C1F30A5264
:10067000C1F3130140F2FF3341F480119A4202DAD0
:1006800000200146704740F233439A42A2F23342BF
:1006900002DC5242FFF752BEFFF741BE30B5041EE6
:1006A00071F1000404DB4FF00044404264EB0101AF
:1006B000141E73F1000405DB1C464FF00043524248
:1006C00063EB0403994208BF904230BD064C074DCE
:1006D00006E0E06840F0010394E807009847103412
:1006E000AC42F6D3FFF77CFDC4490008E44900089A
:1006F000202A06DBCB17203A41FA02F043EAE073E6
:1007000006E041FA02F3D040C2F1200291400843D2
:100710001946704710B5141E73F1000408DA401C26
:1007200041F1000192185B411A4301D120F0010010
:1007300010BD2DE9F04D92469B4611B1B1FA81F200
:1007400002E0B0FA80F220329046FFF7E8FD04465E
:100750000F4640EA0A0041EA0B0153465A46084355
:1007600013D0114653EA010019D0C8F14002504697
:10077000FFF7E4FD05460E46504659464246FFF750
:10078000CEFD084305D0012004E020463946BDE8EF
:10079000F08D0020054346EAE0762C4337430A9863
:1007A0006305E40AA0EB08000022FD0A44EA47546E
:1007B0000A3002D500200146E9E701051019694118
:1007C000DDE9084500196941BDE8F04DA2E70000E8
:1007D0002DE9F041044600270D46006802F0E4FBD5
:1007E0000646206802F0DCFB30435DD02068C1681B
:1007F0002E4E890105D5617F012902D1217F012972
:100800000BD0022D1DD0206802F0CEFBB8B12068BD
:100810008168C1F3400169B111E00125244902E07A
:100820008F4232D27F1C0268D2435206F8D4402154
:100830000160E8E78168314041F010018160012DDD
:1008400011D0206802F0ACFB48B120688168C1F388
:10085000400121B98168314041F020018160022DC1
:1008600008D0032D04D0042501F064F9064617E0F2
:100870000C25F9E70825F7E701F05CF9801B05284E
:100880000ED92068806828420AD0E06D40F0100040
:10089000E065206E40F0010020660120BDE8F08197
:1008A000206880682842E7D10020F7E7C0FFFF7F7B
:1008B000000040A310B5846AE16D11F0500F06D01E
:1008C000E16DC90625D5204600F0DEFC10BDE06DC7
:1008D00040F40070E06520680168090716D502F051
:1008E0006BFB78B12068C068800400280ADBE06DEB
:1008F00020F48070E065E06DC00403D4E06D40F04A
:100900000100E065204600F0BDFC10BDC068800716
:10091000EBE7616D496BBDE81040084710B5806A90
:10092000C16D41F04001C165016E41F004010166F5
:1009300000F0AAFC10BD10B5806A00F0A4FC10BD48
:1009400070B50446006881688268C1F3400112F006
:10095000010F28D039BB816801F00D01012914D1A4
:100960008168124A1140891C816021680320086057
:1009700001F0E0F8054612E001F0DCF8401B022827
:100980000DD920688068C00709D0E06D40F01000E4
:10099000E065206E40F001002066012070BD2068F7
:1009A0008068C007E8D1002070BD0000C0FFFF7F55
:1009B000F8B50446002000902068816811F0010F0E
:1009C0004AD18168254A114237D18168D5432940EF
:1009D000491C81602068B0F1A04F02D020498842B4
:1009E00001D1204800E02048806800F0E07000025B
:1009F0000DD51E481E490068B0FBF1F0401C00EB0D
:100A00004000800000E0401E00900028FBD101F073
:100A100091F806461BE0816811F0010F03D181684F
:100A20002940491C816001F085F8801B02280ED9FD
:100A300020680068C043C00709D0E06D40F0100096
:100A4000E065206E40F0010020660120F8BD2068BE
:100A50000168C943C907DED10020F8BD3F0000800E
:100A60000001005000030050000700500C0000205F
:100A7000400D030010B500F0AFF803F0CAFA00F023
:100A800081F800F081F820B103A0BDE8104003F028
:100A9000C1BA07A0F9E7000041444320444D41207A
:100AA0007374617274206661696C65640000000093
:100AB00041444320444D41207374617274206F6B34
:100AC00000000000F0B52DED028B85B000F049F874
:100AD000074600F049F800EE107ADFED160A0446EA
:100AE000B8EE401A81EE200A9FED131A20EE018A1B
:100AF00000EE104AB8EE400AC0EE201A21EE810A3C
:100B000010EE100AFFF7E2FB05460E4618EE100A3B
:100B1000FFF7DCFB8DE863002246394607A003F0AF
:100B200062FA05B06420BDEC028BBDE8F04000F035
:100B3000CFBE000000F07F453333534072616E6BCF
:100B4000313D25752C72616E6B323D25752C7631E9
:100B50003D252E33662C76323D252E33660000006F
:100B60007047002000F004B8012000F001B8000038
:100B7000022801D300207047014931F81000704766
:100B80001000002070470000114810B54AF6AA2155
:100B900001804BF6BB3141800E4800F07BFD022204
:100BA0000B490C4800F0E0FC10B14FF0FF3010BDD5
:100BB0000848416D51B109680A6822F004020A60D0
:100BC000406D0068016821F002010160002010BD45
:100BD00010000020140000207047000010B560B124
:100BE00059B10A4601464FF47A73054802F076F986
:100BF000002801D06FF0010010BD4FF0FF3010BD94
:100C000028020020FEE7000010B501680E4CCAB2B1
:100C10001423083AA14203D2B2FBF3F20B4904E0D9
:100C2000B2FBF3F2094920310832436C02F01F0293
:100C300023F003031944816404498031C164012114
:100C40009140016510BD0000080402400008024008
:100C50000179084A01F07F0102EB81024265054AF1
:100C60004432491E826501F01F0201219140C16595
:100C700070470000FC08024030B5D0E913456560BC
:100C8000446D14B1D0E91645656090F8444004F015
:100C90001F050124AC40056C6C60046863608368C8
:100CA000102B036803D099600068C26030BD9A6061
:100CB0000068C16030BD704772B6FEE72DE9F04FA5
:100CC000044690F858009BB00F464FF0000B0128E7
:100CD00012D0012084F85800002617961896206834
:100CE0004FF0A048DFF81C91DFF81CA1474D4045AC
:100CF00006D12846009508E002201BB0BDE8F08F21
:100D000048450AD15046CDF800A002F051F90090B4
:100D1000206802F04DF940B109E0E06D40F020009C
:100D2000E06584F858600120E7E7009850B1E06D75
:100D300040F02000E0654FF0010B00BF84F85860E0
:100D40005846DAE720684146884201D0A84201D1DE
:100D50002F4800E02F48D7F800C02F4B40F61F72F5
:100D6000BCF1000F2DD0D0F808C094F838802CF4D6
:100D7000604C4CEA483CD7F804804CEA080CC0F8B8
:100D800008C0D4F800C08C4501D0AC4504D18968B6
:100D9000AB6801F0010109E0D9F80810DAF8085051
:100DA00001F0010105F001059B68294303F00103EF
:100DB0001943C3D1BB683968194383689343194306
:100DC0001DE0876827F46047876027688F4201D05D
:100DD000AF4204D18968AB6801F0010109E0D9F89C
:100DE0000810DAF8085001F0010105F001059B68D0
:100DF000294303F001031943A0D181689143816025
:100E00009CE7000000040050000500500001005065
:100E10000003005000070050000600502DE9F84F75
:100E200000270446009790F85800DFF818840D4614
:100E3000B946012811D0012684F85860206802F0D4
:100E4000B3F860B1E06D40F02000E0655FF00107AD
:100E500084F858903846BDE8F88F0220FBE7D5E9C2
:100E600000210C23206803EA91131844036B01F05E
:100E70001F014FF01F0C0CFA01FCC2F3846223EA3D
:100E80000C038A4013430363206802F08DF8824606
:100E9000206802F085F85AEA00003CD1AA68296867
:100EA0002068B2F1004F37D002F08EF82068416917
:100EB00021F00041416120686969C268C2F3C10242
:100EC000520091402A69042A31D000EB82002B683D
:100ED000026EDFF874C303F0F84302EA0C020B431E
:100EE0001A4342F00041016620682A69A96900EBB3
:100EF0008200026E22F080720A430266297F206817
:100F00002A69012910D0002100EB8200026E22F034
:100F100000720A4302667DE0002202F055F8206864
:100F2000416941F00041C5E74FF00071ECE7002155
:100F300002F030F8400320684FF0000172D002F058
:100F400029F890FAA0F0B0FA80F1286842036ED038
:100F500090FAA0F0B0FA80F0814204D1002211464C
:100F6000206802F040F80121206802F013F84003E5
:100F700020684FF001015DD002F00CF890FAA0F06B
:100F8000B0FA80F12868420359D090FAA0F0B0FA84
:100F900080F0814204D100220121206802F023F870
:100FA0000221206801F0F6FF400320684FF00201A3
:100FB00048D001F0EFFF90FAA0F0B0FA80F1286875
:100FC000420344D090FAA0F0B0FA80F0814204D1FC
:100FD00000220221206802F006F80321206801F0B7
:100FE000D9FF400320684FF0030133D001F0D2FF56
:100FF00090FAA0F0B0FA80F1286842032FD090FA5E
:10100000A0F0B0FA80F0814204D1002203212068D0
:1010100001F0E9FF2068816811F0010F22D0ACE0F7
:1010200000E004E001F0B6FFC0F384618DE7C0F397
:10103000846091E701F0AEFFC0F38461A2E7C0F3E2
:101040008460A6E701F0A6FFC0F38461B7E7C0F3B0
:101050008460BBE701F09EFFC0F38461CCE7C0F37E
:101060008460D0E72A7B296850F8B03FC1F3120CA6
:1010700023EA0C0302F0180C744A22FA0CF20A401C
:1010800013430360E968414577D1286841031CD0C8
:1010900090FAA0F1B1FA81F1491C01F01F01092970
:1010A0004FEA403132D8002912D000BF90FAA0F1A7
:1010B000B1FA81F101F1010101F01F0106FA01F617
:1010C00009D100BFC0F3846109E0C0F38461E3E7A4
:1010D000C0F38461EEE790FAA0F1B1FA81F101F179
:1010E000010101F01F0146EA816102D1C0F3846071
:1010F00003E090FAA0F0B0FA80F000F1010000F0F7
:101100001F0000EB400041EA005132E000290ED000
:1011100090FAA0F1B1FA81F101F1010101F01F0192
:1011200006FA01F606D100BFC0F3846106E0C0F301
:101130008461F1E790FAA0F1B1FA81F101F10101C6
:1011400001F01F0146EA816102D1C0F3846003E02F
:1011500090FAA0F0B0FA80F000F1010000F01F005A
:101160003B4A00EB400002EB005041EA000141F035
:101170000071AA68206801F027FF36482B680342F7
:101180003FF466AE21684FF0A04C334D3348344EE7
:10119000614501D0A94201D1024600E03246926881
:1011A000DFF8C08002F0E072434503D0DFF8B8807A
:1011B000434521D15FEA02281ED4614506D02B4B5E
:1011C00099427FF445AEA94200D0304642F4000176
:1011D000826822F0E0720A4382602548254900684F
:1011E000B0FBF1F0401C00EB4000800000E0401E2E
:1011F00000900028FBD12BE6DFF87C8043450DD121
:101200005FEAC2180AD4A942F5D01C4B9942F2D029
:10121000614500D0304642F080710CE0DFF860801C
:101220004345E8D15302E6D4A942E4D0614500D059
:10123000304642F48001826822F0E0720A43826004
:1012400006E6000000007F4000F0FF03FFFF0700FC
:10125000000020FE00000880000100500003005044
:1012600000070050000021C31000C090000600508D
:101270000C000020400D0300000052C70005005084
:10128000000084CB7047704770470000F8B54FF0FE
:10129000000504002E46009502D0E06D10B107E075
:1012A0000120F8BD204600F009F9266684F8586050
:1012B00020688168C1F3407119B18168734A114097
:1012C000816020688168C1F3007189B98168704AC2
:1012D000114041F0805181606E486F490068B0FB59
:1012E000F1F04000801C00E0401E00900028FBD17F
:1012F00020688168C1F3007141B9E16D41F01001CE
:10130000E165216E41F001012166012501F04CFEED
:10131000E16DC90600D430B1E06D40F01000E06529
:1013200001252846F8BDE06D20F4807040F00200F1
:10133000E0652068816811F0010F27D14FF0A043CC
:10134000564A984201D0904204D19968966801F0BB
:1013500001010AE052498968524E01F00101B66864
:1013600006F001063143504EB66806F001063143DF
:101370000CD1984201D0904201D14C4800E04C4839
:101380006168826822F47C120A438260E168E06B43
:10139000627F0843A16841EA4231084394F824106F
:1013A00040EA0140012904D1218D424A02EB41412A
:1013B0000843E16A29B101F47871226B014342EAE2
:1013C00001002268D1683C4B19400143D16020687C
:1013D0000169626B21F0406111430161206801F0F5
:1013E000DFFD70BB207F94F838102268800340EA4C
:1013F0004100D16844F2020399430143D16020695E
:101400000028206801690AD041F480310161206818
:1014100050F8C01F22696FF30D01114307E021F45A
:1014200080310161206850F8C01F6FF30D01016029
:1014300094F8400001280CD02068016921F00101D6
:101440000161606901282068016B21F00F0111D052
:1014500013E0D4E911010843D4E9131211430843FE
:1014600021680A6940F2FC739A43104340F001007E
:101470000861E6E7226A521E11430163E06D20F025
:10148000020040F00100E0654BE70000C0FFFF5F95
:10149000C0FFFF7F0C000020400D03000001005042
:1014A00000040050000500500006005000030050EA
:1014B000000700500000FEFF0740F0FF70B59CB031
:1014C0000546142115A8FEF7EFFE54216846FEF7E5
:1014D000EBFE2868B0F1A04F3DD14FF400400090E2
:1014E00080031190684600F015FC08B1FFF7E4FB9B
:1014F0001A49C86C40F40050C864C86C00F400502D
:101500001A90C86C40F00100C864C86C002600F056
:1015100001001A900320CDE91606159015A94FF089
:10152000904000F0E7F90F4C0D4820600520C4E919
:1015300001068020C4E90360400060618000A06172
:101540002020C4E90706204600F01AF908B1FFF789
:10155000B3FB6C65A5621CB070BD000000100240BA
:1015600008000240800000202DE9F0470446006892
:101570004FF0A0483D4F91468A46404501D0B842C1
:1015800001D13B4900E03B49896801F01F0501F0AA
:101590000BFD002868D194F85800012864D0012080
:1015A00084F8580034492068884201D1012000E0C5
:1015B0000020401E28424FF0000605D0052D03D024
:1015C000092D01D0012003E02046FFF7F1F918B101
:1015D00084F85860BDE8F087E06D40F6016188430B
:1015E00040F48070E0652068B84201D1414605E0D2
:1015F0002249884201D1224900E00146814200D0BF
:101600001DB9E06D20F48010E065E06DC00404D5E4
:10161000206E20F00600206600E02666616D194805
:10162000C862616D18480863616D18484863216895
:101630001C20086084F858602068416841F010015F
:1016400041602068C16841F00101C16021684B46DA
:1016500052464031606D00F0F5F821688A680C4B05
:101660001A40121D8A60B5E70220B3E7000100505E
:101670000003005000070050000600500005005015
:1016800000040050B5080008370900081D090008CB
:10169000C0FFFF7F70B5044690F85800012809D0BC
:1016A000012084F8580003212046FFF791F8050037
:1016B00002D027E0022070BD2068C16821F001013E
:1016C000C160606D90F82510022907D100F01FF865
:1016D000050003D0E06D40F04000E06520684168FF
:1016E00021F010014160204615B1FFF729F909E00A
:1016F000FFF726F9050005D1E06D20F4885040F091
:101700000100E065002084F85800284670BD10B53F
:10171000002140B190F825300122022B05D0042190
:10172000C163012124E0012010BD03681C6824F07E
:1017300001041C6003681C6824F00E041C60836CA8
:101740001C6824F480741C6090F84430046C03F02E
:101750001F0302FA03F36360D0E913345C60436D46
:1017600033B11C6824F480741C60D0E916345C60CA
:1017700080F82520002280F82420084610BD0000B3
:1017800070B504000CD02C4A21681420914209D273
:101790002A4A0A44B2FBF0F08000606428480AE05C
:1017A000012070BD244A52420A44B2FBF0F080008E
:1017B0006064214808382064022084F825000A6803
:1017C00047F6F0708243D4E902031843D4E90435A4
:1017D0002B431843A3691843E3691843236A18434A
:1017E000104308602046FFF70FFAA0680025B0F507
:1017F000804F00D165602079A16C00F07F00086007
:10180000D4E9130141606068401E032808D82046CF
:10181000FFF71EFA606D0560D4E91601416002E031
:101820006565A565E565E563012084F8250084F814
:101830002450002070BD000008040240F8FFFDBFE6
:101840000000024070B5044690F8240000250128ED
:101850000CD0012084F8240094F825600020012E8B
:1018600006D084F824000225284670BD022070BDF1
:10187000022684F82560E0632068066826F00106E9
:1018800006602046FFF7F8F9206B00282068016801
:1018900002D041F00E0106E021F004010160206851
:1018A000016841F00A010160A06C0168C90303D519
:1018B000016841F480710160606D18B1016841F404
:1018C000807101602068016841F001010160CBE78F
:1018D00070B5044600F02EF90546601C02D004489D
:1018E0004068044400F026F9401BA042FAD370BDC2
:1018F000000000202DE9F04FDFF80C9200230126B4
:101900000325A9F1040B85B00F2709F1040AABF1F7
:10191000040EF1E006FA03FC12EA0C027ED00C7908
:1019200004F00304012C01D0022C20D1846800941F
:101930005C0005FA04F80494009C24EA080400946E
:10194000D1F80C80049C08FA04F8009C48EA0408CA
:10195000C0F80880446824EA0C0491F804C0CCF371
:10196000001C0CFA03FC4CEA040CC0F804C00C790F
:10197000E443A40702D18C68012C0ED0C4684FEA5E
:10198000430805FA08FC24EA0C04D1F808C00CFA54
:1019900008FC4CEA040CC0F80CC00C7904F00304F9
:1019A000022C16D1DC0800EB840CCDF808C0DCF862
:1019B00020C05C074FEAD46807FA08F42CEA040C4C
:1019C0000C6904FA08F444EA0C04DDF808C0CCF809
:1019D000204004684FEA430805FA08FC24EA0C0496
:1019E00091F804C00CF0030C0CFA08FC4CEA040C4F
:1019F000C0F800C04C6814F4403F7CD0434CD4F88D
:101A000060C04CF0010CC4F860C0246E23F0030CDD
:101A100004F0010400943E4C644400E06BE0029446
:101A2000A4684FEA837C4FEA1C7807FA08FC24EA92
:101A30000C04B0F1904F06D0DFF8D8C0604505D156
:101A40004FF0010C20E04FF0000C1DE0DFF8C8C0A3
:101A5000604502D14FF0020C16E0DFF8C0C06045CF
:101A600002D14FF0030C0FE0DFF8B4C0604502D1A3
:101A70004FF0040C08E0DFF8ACC0604502D14FF035
:101A8000050C01E04FF0060C0CFA08FC4CEA040CC3
:101A9000029CC4F808C0D9F80040CC46D1F80480B4
:101AA00094435FEAC82800D51443CCF80040DAF824
:101AB0000040D446D1F8048094435FEA882800D5DA
:101AC0001443CCF80040DBF80040DC46D1F8048039
:101AD00094435FEA883800D51443CCF80040DEF820
:101AE0000040F446D1F8048094435FEAC83800D53A
:101AF0001443CCF800405B1C0C682246DC407FF4A9
:101B000009AF05B0BDE8F08F0804014000100240A5
:101B1000000001400004004800080048000C004894
:101B200000100048001400480AB1816170478162CA
:101B300070470000014880687047000000000020E6
:101B400002488168426811448160704700000020AB
:101B500010B50024032000F065F80F2000F008F80D
:101B600008B1012401E000F025F8204610BD000076
:101B700070B50E4E05460024706898B14FF47A7126
:101B8000B1FBF0F00A490968B1FBF0F000F032FE59
:101B900040B9102D06D200222946501E00F022F82E
:101BA000356000E00124204670BD000000000020E8
:101BB0000C0000200A4882B0016E41F0010101666C
:101BC000016E01F001010091816D41F0805181654C
:101BD000806D00F08050009002B000F093B80000DB
:101BE00000100240F0B40E4B1B680C46C3F30223F6
:101BF000C3F10705042D00D90425191D072901D2B9
:101C0000002300E0DB1E012606FA05F1491E2140F3
:101C100099409E40761E16403143F0BC02F026BA31
:101C20000CED00E0064900F0070208684FF6FF03DC
:101C3000184040EA0220034A104308607047000041
:101C40000CED00E00000FA052B492C4B0A6832210C
:101C50004A432B4940B1B0F5007F086829D020F4F1
:101C6000C06040F480602CE00868C0F34120022886
:101C700004D051F8800F20F4807022E0D1F8800069
:101C800020F48070C1F88000086820F4C06040F43F
:101C900000700860B2FBF3F0401C00E0401E4A698F
:101CA000520501D50028F9D1486940050AD503201D
:101CB0007047C0F34120022806D051F8800F40F44D
:101CC0008070086000207047D1F8800040F4807078
:101CD000C1F88000086820F4C06040F4007008601B
:101CE000B2FBF3F0401C00E0401E4A695205DBD510
:101CF0000028F9D1D8E700000C00002040420F0076
:101D0000007000400248816841F480418160704762
:101D1000007000402DE9F843044600680026BB4DE2
:101D200000035ED5A86D0027C00008D4A86D40F060
:101D30008050A865A86D012700F080500090DFF862
:101D4000D092D9F8001041F48071C9F80010FFF763
:101D5000F1FE804606E000BFFFF7ECFEA0EB0800B6
:101D600002282BD8D9F80000C005F5D5D5F8900089
:101D700010F4407014D0216D814211D0D5F890003C
:101D8000D5F8901020F4407041F48031C5F89010DF
:101D9000D5F8901021F48031C5F89010C5F8900066
:101DA000C00711D0FFF7C6FE804641F2883907E030
:101DB000FFF7C0FEA0EB0801494501D903260BE05F
:101DC000D5F890008007F3D5D5F89000216D20F468
:101DD00040700843C5F890001FB1A86D20F08050F6
:101DE000A8652078C00707D0D5F88800616820F082
:101DF00003000843C5F888002078800707D5D5F888
:101E00008800A16820F00C000843C5F888002078FD
:101E1000400707D5D5F88800E16820F03000084376
:101E2000C5F888002078000707D5D5F88800216913
:101E300020F0C0000843C5F888002078C00607D508
:101E4000D5F88800616920F440700843C5F888001F
:101E50002078800607D5D5F88800A16920F4406075
:101E60000843C5F888002078400607D5D5F88800D3
:101E7000E16920F440500843C5F888002078000646
:101E800007D5D5F88800216A20F440400843C5F8FA
:101E900088002088C00507D5D5F88800616A20F43D
:101EA00040300843C5F888002068800307D5D5F87E
:101EB0009C00A16A20F003000843C5F89C0020881C
:101EC000800507D5D5F88800E16A20F44020084352
:101ED000C5F88800208840050FD5D5F88800216B0B
:101EE00020F440100843C5F88800206BB0F5801F2F
:101EF00003D1E86840F48010E860208800050FD521
:101F0000D5F88800616B20F440000843C5F88800CC
:101F1000606BB0F5800F03D1E86840F48010E86092
:101F20002088C0040FD5D5F88800A16B20F0407040
:101F30000843C5F88800A06BB0F1807F03D1E86842
:101F400040F48010E86020884FF0006180040ED5D6
:101F5000D5F88800E26B20F040601043C5F8880097
:101F6000E06B884203D1E86840F48010E860208884
:101F700040040ED5D5F88800226C20F04060104354
:101F8000C5F88800206C884203D1E86840F48010CE
:101F9000E860208800040FD5D5F88800616C20F037
:101FA00040500843C5F88800606CB0F1805F03D1F1
:101FB000E86840F48030E8602068C0030FD5D5F8A9
:101FC0008800A16C20F040400843C5F88800A06C50
:101FD000B0F1804F03D1E86840F48030E8602068B9
:101FE00040030FD5D5F89C00E16C20F44010084365
:101FF000C5F89C00E06CB0F5001F03D1E86840F420
:102000008010E8603046BDE8F88300000010024010
:10201000007000402DE9F0470E4605004FF0000724
:1020200025D0DFF8AC81D8F8000000F00F00B042F6
:102030000CD2D8F8001021F00F013143C8F800107D
:10204000D8F8000000F00F00B04210D12968614CB0
:10205000C80741F2883A5AD06868DFF87C910328B3
:1020600008D0022820682DD0400500282CDB012054
:10207000BDE8F08720688001F9D5E06800F0030230
:10208000E068C0F30310401C032A19D0534A00BF74
:10209000B2FBF0F0E268C2F306225043E268C2F3FA
:1020A0004162521C5200B0FBF2F0484517D9A068BB
:1020B00010F0F00F0CD0880711D5A86840B10EE0E1
:1020C000474AE5E78003D0E700F0B6F8484506D96F
:1020D000A06820F0F00040F08000A0608027A06899
:1020E000696820F003000843A060FFF723FD8146E4
:1020F00006E000BFFFF71EFDA0EB090151453AD8ED
:10210000A068696800F00C00B0EB810FF2D128687C
:10211000810714D5400703D5A06840F4E060A060B3
:102120002878000705D5A06820F4605040F4E060EE
:10213000A060A068A96820F0F000084304E0802FA8
:1021400003D1A06820F0F000A060D8F8001040464D
:1021500001F00F01B14216D9016821F00F0131439E
:102160000160FFF7E7FC074607E000BFFFF7E2FC6E
:10217000C11B514501D903207AE7D8F8000000F0CF
:102180000F00B042F2D12878400705D5A068E96871
:1021900020F4E0600843A0602878000706D5A06816
:1021A000296920F4605040EAC100A06000F044F8C2
:1021B000A1680C4AC1F30311515C01F01F01C84032
:1021C0000949086009480068BDE8F047FFF7D0BC3E
:1021D000002002400010024000B4C4040024F400B7
:1021E00000127A00AA4900080C000020000000201C
:1021F0000548064900688968054AC1F30221515C17
:1022000001F01F01C84070470C0000200010024080
:10221000BA4900080548064900688968054AC1F3BB
:10222000C221515C01F01F01C84070470C00002022
:1022300000100240BA490008184910B58868C0F378
:1022400081021748012A0BD08A684310C2F3810229
:10225000022A06D08A68C2F38102032A03D0002032
:1022600010BD184610BDCA6802F00304CA68C2F364
:102270000312521C032C02D0B0FBF2F001E0B3FBBE
:10228000F2F0CA68C968C2F306225043C1F3416143
:10229000491C4900B0FBF1F010BD000000100240E5
:1022A0000024F4002DE9F84304007AD02078F84D9A
:1022B000C00747D0A868E96800F00C0001F00301EE
:1022C0000C2802D0082817D001E0032914D0606838
:1022D000B0F5803F17D0B0F5A02F286817D020F4B4
:1022E00080302860286820F4802028606068E0B191
:1022F000FFF720FC064614E02868800322D56068BA
:102300000028D2D01EE0286840F48030EDE740F489
:1023100080202860F7E700BFFFF70CFC801B6428D3
:1023200070D828688003F7D50CE0FFF703FC064659
:1023300005E000BFFFF7FEFB801B6428F0D828688B
:102340008003F7D4207880074CD5A868E96800F0AE
:102350000C0001F003010C2802D004280DD001E08C
:1023600002290AD0E068002828682BD040F4807049
:102370002860FFF7DFFB064619E02868400502D514
:10238000E068002891D06868217C20F0FE4040EA97
:1023900001606860BF480068FFF7EAFB002800D1D1
:1023A00020E072E1FFF7C6FB801B0228B8D828683E
:1023B0004005F7D56868217C20F0FE4040EA0160C6
:1023C00068600FE020F480702860FFF7B3FB0646DA
:1023D00005E000BFFFF7AEFB801B0228A0D82868ED
:1023E0004005F7D42078000729D560690028D5F882
:1023F000940013D040F00100C5F89400FFF79AFB59
:10240000064606E090E000BFFFF794FB801B022821
:1024100086D8D5F894008007F6D510E020F00100AA
:10242000C5F89400FFF786FB064604E0FFF782FB41
:10243000801B022878D8D5F894008007F6D420783D
:10244000400761D5A86D0026C00008D4A86D40F0F3
:102450008050A865A86D012600F0805000908E483D
:102460000168C90511D40168804641F4807101609A
:10247000FFF760FB074604E0FFF75CFBC01B022888
:1024800052D8D8F80000C005F6D5A068012815D0AC
:102490000528D5F8900016D020F00100C5F890006E
:1024A000D5F8900020F00400C5F89000A06841F233
:1024B0008838B8B1FFF73EFB07460EE0D5F890002C
:1024C00040F00100F0E740F00400C5F89000F5E7A7
:1024D000FFF730FBC11B414526D8D5F89000800797
:1024E000F6D50CE0FFF726FB074604E0FFF722FBDA
:1024F000C11B414518D8D5F890008007F6D41EB10D
:10250000A86D20F08050A8652078800629D5A069A4
:102510000028D5F8980013D040F00100C5F89800C5
:10252000FFF708FB064606E075E000BFFFF702FB79
:10253000801B02286FD8D5F898008007F6D510E0E8
:1025400020F00100C5F89800FFF7F4FA064604E011
:10255000FFF7F0FA801B02285DD8D5F898008007B5
:10256000F6D4E069F0B3A968C1F3810103295DD015
:102570000228286820F08070286003D0FFF7DAFA7C
:1025800004464BE0FFF7D6FA064604E0FFF7D2FA1E
:10259000801B02283FD828688001F7D4F4E908019D
:1025A0006FF00F0202EB01110843218A520449081F
:1025B00002EB4151A26841EA02210843217D4FF01C
:1025C0007E42490802EB41610843217B40EAC16039
:1025D000E968324A11400843E860286840F080709A
:1025E000286000E05EE0E86840F08070E860FFF797
:1025F000A1FA044605E000BFFFF79CFA001B022881
:1026000009D828688001F7D54CE000BFFFF792FA9F
:10261000001B022802D90320BDE8F8832868800146
:10262000F4D4E8681E490840E8603BE00128F3D094
:10263000E868226A00F00301914226D1616A00F045
:10264000F0020901103991421FD1A26A00F4FE4143
:10265000B1EB022F19D194F82C2000F07841B1EBA6
:10266000C26F12D1218E00F4C00249084905A1F5BC
:102670000011914209D194F8341000F0C06049086B
:102680004906A1F1007181420CD00120C4E700008D
:102690000010024000000020007000400C809F01EC
:1026A000FCFFEEFE0020B7E770B5040009D0606AB9
:1026B000002540B125616561A56294F85D0040B1D7
:1026C0000CE0012070BD6068B0F5827FF4D0E56158
:1026D000F2E784F85C50204600F05CF8022084F8B1
:1026E0005D002068016821F040010160E1684FF45D
:1026F000E062914201D9002001E04FF48050B1F531
:10270000706F02D0914200D0A562A188228901F4A5
:10271000827102F404421143227C02F0020211434E
:10272000227D02F001021143228B02F40072114358
:10273000227F02F03802114394F8202002F0800238
:102740001143228D02F40052114322681160A169E5
:10275000042202EA114194F8242000F4805002F08F
:102760001002114394F8342002F008021143A289A8
:1027700002F4706211430143206841602068C1691E
:1027800021F40061C1612566012084F85D0000200C
:1027900070BD000010B586B0044614216846FDF7F0
:1027A00083FD1249206888421ED11148016E41F410
:1027B00080510166016E01F480510591C16C41F0B8
:1027C0000101C164C06C002100F001000590E0200F
:1027D00000900220CDE90101039005200490694694
:1027E0004FF09040FFF786F806B010BD0030014072
:1027F0000010024010B5401EB0F1807F01D30120CF
:1028000010BD4FF0E02460610F21601701F02EFC35
:102810000020A06107202061002010BD30B590F895
:102820003C20012A45D0012280F83C20CA688B68F0
:1028300022F440721A434B6822F480621A430B68F8
:1028400022F400621A430B6922F480521A434B6946
:1028500022F400521A430B6B22F480421A430B8B72
:1028600022F4702242EA0342CB6922F080521A43DA
:10287000114D03680024AB4205D0104DAB4202D08D
:102880000F4DAB4210D10D8D22F4700242EA055279
:102890000D6A22F080722A434D6A22F000722A43A8
:1028A000C96A22F000520A435A6480F83C40002072
:1028B00030BD022030BD0000002C0140003401403A
:1028C00000500140F0B590F83C20012A43D001258A
:1028D00080F83C50022280F83D2003685A689C68CA
:1028E0001E4E1F4FDFF87CC0B34203D0BB4201D065
:1028F000634504D122F4700E4A6842EA0E02DFF802
:1029000068E002EA0E02D1F800E04EEA020EC3F8D7
:1029100004E00268B24212D0B2F1804F0FD0134BE4
:102920009A420CD0124B9A4209D0124B9A4206D0CE
:10293000BA4204D0104B9A4201D0624504D1896852
:1029400024F080031943916080F83D50002180F805
:102950003C100846F0BD0220F0BD0000002C0140F4
:1029600000340140005001408FFFFFFD0004004093
:1029700000080040000C00400040014010B5040079
:1029800003D094F83D0010B107E0012010BD0020F5
:1029900084F83C00204600F023F8022084F83D0033
:1029A000211D206800F05EFD012084F8480084F8B5
:1029B0003E0084F83F0084F8400084F8410084F829
:1029C000420084F8430084F8440084F8450084F809
:1029D000460084F8470084F83D00002010BD000048
:1029E00008B5124A01681248914207D1016E41F4BC
:1029F00000610166006E00F4006009E00D4A91423A
:102A000008D1816D41F010018165806D00F01000EA
:102A1000009008BD084A9142FBD1816D41F0200130
:102A20008165806D00F02000F2E70000002C01407D
:102A300000100240001000400014004070B5044631
:102A400090F83C000025012815D0012684F83C6050
:102A5000022084F83D0022689068384B184020F42A
:102A60007F4090600868B0F5805F2BD010DC10F0DC
:102A70000F0F03D025E04FF0020070BD4FEA201287
:102A8000082A1ED2DFE802F0565656564E3C442520
:102A90002B4BC21A98424DD00DDCB0F5005F23D00D
:102AA000B0F5801F46D0B0F1101F43D0A0F58011C3
:102AB000203906D13EE0102A3CD0202A3AD0402AC4
:102AC00038D0012584F83D60002084F83C00284679
:102AD00070BDCB68D1E90121206800F031FD20688C
:102AE000816841F0770109E0CB68D1E901212068D4
:102AF00000F026FD2068816841F480418160E1E7B3
:102B0000CA684968206800F0FFFE5021206806E08E
:102B1000CA684968206800F02BFF6021206800F037
:102B200019FDCFE7CA684968206800F0EDFE402132
:102B30002068F4E7226801461046F0E788FFCEFFE0
:102B40003000100010B586B0044614216846FDF729
:102B5000ABFB0F492068884217D10E48C16C41F089
:102B60000101C164C06C694600F0010005904FF49A
:102B7000E060009002200190002002900390062067
:102B800004904FF09040FEF7B5FE06B010BD000077
:102B9000002C01400010024070B5044690F83C0043
:102BA00000260D4601280BD0012084F83C000C2A99
:102BB0004AD007DC82B1042A20D0082A06D131E0AD
:102BC000022070BD102A53D0142A63D001260020A1
:102BD00084F83C00304670BD206800F0C5FC2068D9
:102BE000816941F0080181612068816921F0040157
:102BF0008161206881692A69114311E0206800F031
:102C00000DFD2068816941F400618161206881695E
:102C100021F480618161206881692A6941EA022189
:102C20008161D4E7206800F04DFD2068C16941F062
:102C30000801C1612068C16921F00401C1612068F7
:102C4000C1692A69114311E0206800F08FFD2068F6
:102C5000C16941F40061C1612068C16921F48061EA
:102C6000C1612068C1692A6941EA0221C161AEE7F8
:102C7000206800F0CFFD2068016D41F0080101657A
:102C80002068016D21F0040101652068016D2A6949
:102C9000114311E0206800F0F9FD2068016D41F456
:102CA000006101652068016D21F480610165206883
:102CB000016D2A6941EA0221016588E710B5040027
:102CC00003D094F83D0010B107E0012010BD0020B2
:102CD00084F83C00204600F022F8022084F83D00F1
:102CE000211D206800F0BEFB012084F8480084F814
:102CF0003E0084F83F0084F8400084F8410084F8E6
:102D0000420084F8430084F8440084F8450084F8C5
:102D1000460084F8470084F83D00002010BD70474D
:102D200090F88410012918D0012180F88410242102
:102D3000C0F8881001680A680B6823F001030B6073
:102D400022F0005100224266036819602021C0F879
:102D5000881080F88420104670470220704770B5B4
:102D6000044690F8840001281DD0012084F88400D6
:102D70002420C4F8880020680568026822F0010257
:102D800002602068826822F060620A438260204606
:102D900000F014FE206805602020C4F888000020A0
:102DA00084F8840070BD022070BD70B5044690F8B0
:102DB000840001281DD0012084F884002420C4F858
:102DC000880020680568026822F00102026020681D
:102DD000826822F060420A438260204600F0EEFDE5
:102DE000206805602020C4F88800002084F8840052
:102DF00070BD022070BD10B5040003D0D4F8880067
:102E000010B107E0012010BD002084F884002046A6
:102E100000F026F82420C4F888002068016821F01A
:102E200001010160A06A10B1204600F0E9FD2046D2
:102E300000F0CAFE0128E6D02068416821F49041E4
:102E400041602068816821F02A0181602068016862
:102E500041F0010101602046BDE8104000F034BEA1
:102E600010B59CB00446142115A8FDF71DFA542195
:102E70006846FDF719FA16492068884226D10120D4
:102E80000024CDE900046846FEF744FF08B1FDF7D1
:102E900013FF1048016E41F480410166016E01F498
:102EA00080411A91C16C41F00201C164C06C15A946
:102EB00000F002001A90C02015900220CDE91604FF
:102EC0000720CDE918400448FEF714FD1CB010BDE2
:102ED0000038014000100240000400482DE9F84F7E
:102EE0000446D0F88800984615460E46202802D0A1
:102EF0000220BDE8F88F96B38DB30020C4F890008F
:102F00004FF02109C4F888901834FEF713FEA58706
:102F10008246E58754F8100C183CB0F5805F01D16B
:102F2000206910B13546002600E000255FF020073B
:102F3000B4F8560053464FF00002CDF80080D8B1E7
:102F40008021204600F08CFFD8B955B115F8010B4F
:102F500021688862D4F8881039EA010006D001207F
:102F6000C7E736F8020BC0F30800F1E7B4F85600E3
:102F7000401EA4F85600DBE74021204600F070FF19
:102F800018B1C4F888700320B3E7C4F88870002033
:102F9000AFE7FEE700EB8100006E00F0F8407047FD
:102FA0008068C0F3C00070478068C0F3800070473D
:102FB0008068C0F380007047C06810F4406F01D093
:102FC0000020704701207047042303EAD15310B555
:102FD00018444369C1F3045107248C40A3438A4039
:102FE0001343436110BD00EB8100016E21F00041ED
:102FF000114301667047000030B58BB0002408947F
:103000000994202168460A94FDF74EF922484FF0B2
:10301000A041042501604FF44031C0E901148561ED
:103020000121C460C0E904410477417702220262B1
:1030300080F82440C462046380F83810C46380F8C8
:103040004040FEF723F908B1FDF736FE08A9124803
:103050000894FDF733FE08B1FDF72EFE0F480090EF
:103060000620CDE901047F200594CDE903056946DA
:103070000948FDF7D3FE08B1FDF71EFE0848009091
:103080000C20019069460448FDF7C8FE002801D0D5
:10309000FDF712FE0BB030BD14000020020030041A
:1030A00004006008094808B5816C41F0040181649E
:1030B000816C01F004010091816C41F00101816497
:1030C000806C00F00100009008BD0000001002407C
:1030D0002DE9F04387B014216846FDF7E5F82B4849
:1030E000C16C41F00401C164C16C01F0040105919F
:1030F000C16C41F02001C164C16C01F02001059157
:10310000C16C41F00101C164C16C01F00101059184
:10311000C16C41F00201C164C06C1D4F00F002009F
:103120004FF400540590002221463846FEF7FCFC7F
:103130004FF09048002210214046FEF7F5FCDFF8E2
:103140005490A600002231464846FEF7EDFC0125CA
:10315000CDE9004500240294694638460394FEF701
:10316000C9FB10200090CDE9015469464046039404
:10317000FEF7C0FB0096CDE901546946484603942A
:10318000FEF7B8FB07B0BDE8F08300000010024076
:103190000008004800040048124810B510490160BA
:1031A0004FF48271416000214FF47062C0E9021255
:1031B0000122C0E90412520282611822C0E90721EB
:1031C00007224162C0E90A1201634163FFF76CFA0A
:1031D000002803D0BDE81040FDF76EBD10BD000013
:1031E00000300140E000002010B59CB0002419948C
:1031F0001A9417941894149415941C2168461694E4
:10320000FDF752F8342107A8FDF74EF83748364944
:10321000C0E900144FF6FF71C0E902410461446146
:103220008461FFF7ABFB08B1FDF746FD4FF480501A
:10323000179017A92D48FFF701FC08B1FDF73CFDD9
:103240002A48FFF73BFD08B1FDF736FD14941594AD
:1032500014A926481694FFF735FB08B1FDF72CFD9D
:103260006020CDE9000402940394049405940022A4
:1032700069461E480694FFF78FFC08B1FDF71CFD58
:10328000042269461948FFF787FC08B1FDF714FDD1
:10329000082269461548FFF77FFC08B1FDF70CFDD1
:1032A0000C2269461148FFF777FC08B1FDF704FDD1
:1032B0000794089409944FF400500A94CDE90B4008
:1032C0000D9400030E94CDE90F401194129407A9B8
:1032D00006481394FFF7A2FA08B1FDF7EDFC034886
:1032E000FFF730FC1CB010BD002C01404401002051
:1032F0003EB500240E48009401940C490294C0E9A4
:1033000000144FF6FF71C0E902418461FFF736FBFC
:1033100008B1FDF7D1FC0094694605480294FFF717
:10332000D1FA002801D0FDF7C7FC3EBD00100040D7
:10333000900100203EB500240E48009401940C49F1
:103340000294C0E900144FF6FF71C0E902418461A4
:10335000FFF714FB08B1FDF7AFFC00946946054880
:103360000294FFF7AFFA002801D0FDF7A5FC3EBD9F
:1033700000140040DC010020184810B51649016017
:103380004FF4E1314160002181600C22C160C0E94D
:1033900004128161C161016241628162FFF72BFD0C
:1033A00008B1FDF789FC00210C48FFF7FEFC08B1CD
:1033B000FDF782FC00210948FFF7D1FC08B1FDF7B9
:1033C0007BFC0648FFF7ACFC002803D0BDE81040AA
:1033D000FDF772BC10BD000000380140280200203B
:1033E000FEE7FEE770477047FEF7AABB00B593B053
:1033F00038216846FCF758FF14210EA8FCF754FF4B
:103400000020FEF721FC0220C1010391402104911C
:103410000421CDE9080100905521CDE90A1007905B
:103420000C900D906846FEF73DFF08B172B6FEE7BE
:103430000F200E9003200F900020109011901290FA
:1034400004210EA8FEF7E6FD002801D072B6FEE7C3
:1034500013B000BD0248016841F47001016070477B
:1034600088ED00E02DE9F04F02682C4B2C4E2D4FDB
:10347000DFF8B4C02D4C2E4D4FF0804B98420BD04E
:10348000584509D0B04207D0B84205D0604503D0B6
:10349000A04201D0A84204D122F070084A6842EA52
:1034A0000802DFF89080DFF89090DFF890A0984253
:1034B00011D058450FD0B0420DD0B8420BD0604566
:1034C00009D0A04207D0404505D0484503D050451B
:1034D00001D0A84203D122F44076CA6832434E6933
:1034E00022F0800232438E68C6620E68866298427D
:1034F00009D0A04207D0404505D0484503D05045EB
:1035000001D0A84201D109690163016841F00401B9
:103510000160012141610260BDE8F08F002C014093
:103520000004004000080040000C0040003401404E
:10353000005001400040014000440140004801406B
:1035400010B5846842EA032224F47F440A432243EC
:10355000826010BD8268034B1A400A4342F00701A3
:10356000816070478FFFCFFF2DE9F047056A026A3F
:1035700022F00102026243688269214C25F00205B3
:1035800022400C6822F0030214438A681E4E2A432C
:103590001C4D1E4FDFF878C0DFF87890DFF878A078
:1035A000A84209D0B04207D0B84205D0604503D048
:1035B000484501D050450AD1D0F8208028F00408B1
:1035C000C0F8208022F00808CA6842EA0802A8422F
:1035D00009D0B04207D0B84205D0604503D0484575
:1035E00001D0504505D14D6923F440731D438B69CB
:1035F0002B4343608461496841630262BDE8F08700
:103600008FFFFEFF002C01400034014000400140CC
:10361000004401400048014000500140F0B5056AF7
:10362000026A22F010020262426883691E4C204E38
:1036300023400C6823F4407343EA042425F020035C
:103640008D681C4F43EA0513184DA84203D0B042C1
:1036500001D0B8420BD1D0F820C02CF0400CC0F8FB
:1036600020C0D1F80CC023F0800343EA0C13A84219
:103670000CD0B0420AD0104DA84207D00F4DA8423E
:1036800004D00F4DA84201D0B84207D14D6922F4B1
:10369000406242EA85028D6942EA850242608461A5
:1036A000496881630362F0BDFF8FFFFE002C01407B
:1036B00000340140005001400040014000440140FE
:1036C00000480140F0B5056A026A22F48072026285
:1036D0004268C3691E4C204E23400C6823F003034C
:1036E0001C4325F400738D681C4F43EA0523194DD4
:1036F000A84203D0B04201D0B8420BD1D0F820C0CC
:103700002CF4806CC0F820C0D1F80CC023F4006306
:1037100043EA0C23A8420CD0B0420AD0104DA84274
:1037200007D0104DA84204D00F4DA84201D0B84296
:1037300007D14D6922F4405242EA05128D6942EAEE
:1037400005124260C4614968C1630362F0BD0000B4
:103750008FFFFEFF002C014000340140005001406B
:10376000004001400044014000480140F0B5056AB6
:10377000026A22F4805202624268C3691E4C204EE3
:1037800023400C6823F4407343EA042425F40053D7
:103790008D681C4F43EA0533184DA84203D0B04250
:1037A00001D0B8420BD1D0F820C02CF4804CC0F826
:1037B00020C0D1F80CC023F4004343EA0C33A842E4
:1037C0000CD0B0420AD0104DA84207D00F4DA842ED
:1037D00004D00F4DA84201D0B84207D14D6922F460
:1037E000404242EA85128D6942EA85124260C46114
:1037F000496801640362F0BDFF8FFFFE002C0140A9
:1038000000340140005001400040014000440140AC
:103810000048014030B5056A026A22F48032026233
:103820004268036D124C23400C681C4325F400339E
:103830000D8943EA05430F4DA8420ED00E4DA84214
:103840000BD00E4DA84208D00D4DA84205D00D4D0D
:10385000A84202D00C4DA84204D14D6922F4803216
:1038600042EA05224260046549688164036230BD12
:103870008FFFFEFF002C014000340140004001405A
:1038800000440140004801400050014030B5046A46
:10389000026A22F4801202624268036D134D24F41E
:1038A00000142B400D6843EA05230D8944EA0554B2
:1038B0000F4DA8420ED00F4DA8420BD00E4DA8427E
:1038C00008D00E4DA84205D00D4DA84202D00D4D96
:1038D000A84204D14D6922F4802242EA8522426046
:1038E00003654968C164046230BD0000FF8FFFFEBC
:1038F000002C0140003401400040014000440140E0
:10390000004801400050014010B5036A046A24F0E9
:1039100001040462104CA0420ED0104CA0420BD007
:103920000F4CA04208D00F4CA04205D00E4CA04234
:1039300002D00E4CA04203D1046A24F004040462B5
:10394000846924F0F00444EA021423F00A020A43D2
:103950008461026210BD0000002C0140003401406F
:103960000040014000440140004801400050014037
:1039700010B5036A046A24F0100404620C4CA042DF
:1039800005D00C4CA04202D00B4CA04203D1046ADB
:1039900024F040040462846923F0A00324F47044FA
:1039A00044EA023243EA01118261016210BD000063
:1039B000002C0140003401400050014030B5416E00
:1039C000B9B1026891689268C1F342610B4B520F22
:1039D0009C5CE50003F10804A25CB5FBF2F2A0F8E0
:1039E0006A205A5C615CD200B2FBF1F1A0F8681069
:1039F00030BD0121A0F86A10F8E700009A490008DC
:103A000090F82810090706D501684A68836B22F4EC
:103A100000421A434A6090F82810C90706D001688E
:103A20004A68C36A22F400321A434A6090F82810A8
:103A3000890706D501684A68036B22F480321A436D
:103A40004A6090F82810490706D501684A68436B18
:103A500022F480221A434A6090F82810C90606D53D
:103A600001688A68C36B22F480521A438A6090F816
:103A70002810890606D501688A68036C22F4005272
:103A80001A438A6090F82810490611D501684A68DF
:103A9000436C22F480121A434A60416CB1F5801FD6
:103AA00006D101684A68836C22F4C0021A434A6056
:103AB00090F82810090606D501684A68C06C22F4FF
:103AC000002202434A6070472DE9F843002604466D
:103AD000C0F89060FEF72EF88046206800684FF02E
:103AE000200500076FF07E4713D5434600222904C6
:103AF0002046009700F0B4F958B1216851E8000F52
:103B000020F0800041E80002002AF6D1C4F8885075
:103B100021E020680068400722D5434600224FF488
:103B200080012046009700F09BF9C8B1216851E858
:103B3000000F20F4907041E80002002AF6D12068BE
:103B4000083050E8001F21F0010140E80012002A6F
:103B5000F5D1C4F88C5084F884600320BDE8F88364
:103B6000C4F88850C4F88C5044F86C6F66602676B0
:103B70000020F3E710B5026852E8001F21F49071AD
:103B800042E80013002BF6D10E4B0268083252E8CF
:103B9000001F194042E80014002CF6D1C16E012923
:103BA00008D1016851E8002F22F0100241E80023FB
:103BB000002BF6D12021C0F88C100021C16641678E
:103BC00010BD0000FEFFFFEF2DE9F0410446016843
:103BD00080682269E3691043626900251A43104333
:103BE000DFF84CC20A68934B1A4002430A6020680F
:103BF0004168E26821F44051114341602168A069A5
:103C0000614501D0226A10438A688B4B1A400243F7
:103C10008A602068C16A626A21F00F011143C162A3
:103C20008649236886488B420DD1D0F8880010F071
:103C3000030006D0012867D0022854D0032851D1B0
:103C400064E001204FE07F498B420BD1D0F888001F
:103C500010F00C0047D0042845D0082852D00C287A
:103C600040D153E078498B420BD1D0F8880010F056
:103C7000300038D0102847D0202843D0302831D108
:103C800044E072498B420BD1D0F8880010F0C0009C
:103C900029D0402838D0802834D0C02822D135E01F
:103CA0006B498B420ED1D0F8880010F440701AD0C6
:103CB000B0F5807F28D0B0F5007F23D0B0F5407FED
:103CC00010D123E063450DD1D0F8880010F4406096
:103CD00009D0B0F5806F17D0B0F5006F12D0B0F5F5
:103CE000406F13D010205B4A5B4F00264FF4004119
:103CF000634539D160B102280DD004280DD00828C1
:103D000031D10EE00220EEE70420ECE70820EAE7DC
:103D1000FEF76EFA03E0114603E0FEF78DFA0100AC
:103D20007BD0606A37F810206768B1FBF2F007EBD0
:103D30004703834269D8B0EB073F66D800230846A3
:103D40001946FCF767FA090241EA10610202780895
:103D5000101871413A460023FCF75CFA3F4AA0F57F
:103D60004071914257D950E0E3694FF6EF788B42AA
:103D70002BD1092849D2DFE800F005080D48254875
:103D800048480E00FEF734FA01E0FEF743FA01005E
:103D900001D142E01146606A37F81000B1FBF0F043
:103DA0004100606801EB5001B1FBF0F1A1F110009E
:103DB00040452AD84FF6F07201EA0200C1F34201F1
:103DC000084328E0FEF738FAE1E709281DD2DFE8CA
:103DD00000F005080D1C1E1C1C1C0E00FEF708FA46
:103DE00001E0FEF717FA010001D116E01146606A02
:103DF00037F81000B1FBF0F1606801EB5001B1FB46
:103E0000F0F0A0F11001414504D9012505E0FEF7CD
:103E100013FAE8E780B22168C8600120A4F86A00BC
:103E200024F8680F2846E6602661BDE8F0810000AE
:103E300000800040F369FFCFFFF4FF11003801401C
:103E4000001002400044004000480040004C004088
:103E5000005000400024F40082490008FFFC0F00DD
:103E60002DE9F047994617460D4604464FF00008E5
:103E7000089E33E0701C31D0FDF75CFEA0EB09001A
:103E8000B04218D8BEB120680168490726D5802DF8
:103E900024D0402D22D0C169C94309070DD408257B
:103EA00005622046FFF766FEC4F8905084F88480CF
:103EB0000120BDE8F0870320FBE7C069C04300058F
:103EC0000CD421684FF4006008622046FFF752FED0
:103ED0002020C4F8900084F88480ECE72068C06952
:103EE00035EA000004D00020B842C3D00020E0E74B
:103EF0000120F9E7FEE72DE9F0411F460500069B8A
:103F000014464FF0000006D02FB121B1012C06D08D
:103F1000022C06D006E04FF0FF30BDE8F081012012
:103F200000E00220814202D86FF00100F5E7081A94
:103F300086B23A463146284600F07EF8002802DA7A
:103F40006FF00200E9E781B2B14202D36FF00300E3
:103F5000E3E70A21012C02D0022C04D001E029540D
:103F6000401C00B2D9E70D222A54401CF7E72DE986
:103F7000F0471E4690460D465FEA00094FF00007E5
:103F80000CD05DB1B8F1000F08D04846FCF797F9A6
:103F900084B2012E06D0022E06D006E04FF0FF308C
:103FA000BDE8F087012700E00227E119414502D969
:103FB0006FF00100F4E7224649462846FCF75BF91A
:103FC0000A21012E02D0022E04D00AE02955641CD9
:103FD000A4B206E00D202855641CA0B22954401C50
:103FE00084B220B2DCE70FB400B5A1B0229B002B55
:103FF0000CD023A800900222802101A8FFF77BFFAC
:10400000002803DD81B201A8FCF7E8FD21B05DF8CE
:1040100014FB704700B5A1B000280AD0022380220B
:104020006946FFF7A4FF002803DD81B26846FCF76C
:10403000D5FD21B000BD00007CB50C001D46164624
:10404000014601D0601E00E00020CDE90010064BC3
:104050006A462946304600F0EBF8002C02D0009A60
:10406000002111707CBD0000374900080907090EC6
:10407000002804DB00F1E02080F80014704700F015
:104080000F0000F1E02080F8141D704702E008C81E
:10409000121F08C1002AFAD170477047002001E0C2
:1040A00001C1121F002AFBD1704700002DE9FF5FFC
:1040B00082B00021DDE90430020DDDF840B0034399
:1040C00018D044F61050A2F2FF3242431514119852
:1040D00001281FD0A5EB0B00401C5FEA000A4FF03F
:1040E00000064E4FDFF83891B046504615D5CAF15C
:1040F000000413E0119801244AA3012801D16FEABA
:104100000B010298119AC0E90031C0E9024206B0E1
:10411000BDE8F09FCBF10000DFE704460021404AF4
:10412000491842EB0450CDE9001012E0E00707D037
:1041300032463B4640464946FCF7B7F98046894639
:1041400032463B4610461946FCF7AFF906460F4685
:104150006410002CEAD1DDE90401DDE90023BAF1A5
:10416000000F06DAFCF7A1F942464B46FCF79DF931
:1041700005E0FCF70CFA42464B46FCF708FA044609
:104180000E460022284BFCF789FA03D84FF0FF3087
:10419000014607E00022254B20463146FCF7DEF8B9
:1041A000FCF764FA102409E0002C0ADB0A22002341
:1041B000FCF730F8039B30321A55641E50EA0102B6
:1041C000F2D1641C039AC4F111031444119A012A18
:1041D00003D0012208430DD10AE0084304D0002097
:1041E0004FF0110B119072E7A3EB0B056D1E0DE064
:1041F0005B4504DD4FF0000205F1010504E003DA40
:104200004FF00002A5F10105002AECD002981199A7
:10421000C0E90231C0E9004579E700000000144020
:104220000000F03F300000000000F0430000E03FDD
:104230002DE9FF4F95B09A46884606460025EEE1E7
:10424000252877D100242746F94A0121039400E06C
:10425000044316F8013F203B01FA03F01042F7D166
:1042600030782A2811D06FF02F033078A0F1300277
:10427000092A16D8039A44F0020402EB820203EBE7
:1042800042021044761C0390EFE758F8042B039287
:10429000002A03DA504244F40054039044F002042C
:1042A000761C30782E2816D116F8010F44F004043D
:1042B0002A280DD06FF02F023078A0F13003092B9F
:1042C00009D807EB870302EB4303C718761CF3E713
:1042D00058F8047B761C30786C280FD006DC4C280C
:1042E00017D068280DD06A2814D104E0742810D0A3
:1042F0007A280FD10DE044F400140AE044F480144D
:1043000001E044F440147278824202D104F5801432
:10431000761C761C307866280BD013DC582877D0B2
:1043200009DC002875D04528F6D04628F4D0472867
:104330001AD193E118E0632835D0642879D0652834
:1043400012D18BE1702873D008DC6728F1D069287E
:104350006FD06E280DD06F2806D1ACE073282CD01A
:10436000752874D0782853D05246179990476D1C01
:1043700054E1C4F30250022809D003280DD0D8F824
:10438000001004280DD00D6008F1040846E1D8F8AB
:104390000010EA17C1E90052F6E7D8F800100D80C6
:1043A000F2E70D70F0E718F8041B8DF800100020FC
:1043B0008DF80100EB46012003E058F804BB4FF0F4
:1043C000FF3061074FF0000102D40DE009F1010157
:1043D0008946B9420FDA8145F8DB1BF8091000293C
:1043E000F4D108E009F1010189468142FADB1BF8AA
:1043F00009100029F6D103985346A0EB090721467E
:104400003846179A00F080FA284400EB090507E0C7
:1044100044E008E10DE01BF8010B52461799904764
:10442000B9F10109F7D2534621463846179AF2E00E
:1044300039E00A21C4F302524FF0000B0091022A26
:1044400006D058F8040BC117032A09D00AE023E06C
:1044500008F1070020F00702F2E80201904605E0AB
:1044600000B2C117042A01D140B2C117002906DAEF
:104470000A460021404261EB02012D2202E02205A2
:1044800004D52B228DF80420012203E0E20701D09D
:104490002022F7E7914657E00A2100E010214FF073
:1044A000000B00910BE010214FF0000B44F00404CE
:1044B0000827009103E008204FF0000B0090C4F3A0
:1044C0000252022A05D058F8040B0021032A08D012
:1044D00008E008F1070020F00702F2E80201904628
:1044E00003E080B2042A00D1C0B24FF000092207D5
:1044F0002AD53278702A07D0DDF800C08CF0100C75
:104500005CEA0B0C05D00EE040228DF8042001225D
:1045100008E050EA010306D030238DF804308DF80E
:10452000052002229146009B83F0080353EA0B0307
:104530000AD150EA010201D1620705D530228DF877
:1045400004204FF001097F1E3278582A04D039A286
:104550000C920CAA02920BE03BA2F9E75B46009A90
:10456000FBF758FE0C9B9B5C029A521E0292137042
:1045700050EA0102F2D1029804A9081A00F1200BB6
:10458000600702D524F4803400E001275F4502DD96
:10459000A7EB0B0000E0002000EB0B01009003985C
:1045A0004944401A0390E00306D453462146179A23
:1045B000039800F0A9F90544002706E001A8524637
:1045C000C05D179990476D1C7F1C4F45F6DBE003DB
:1045D0000CD553462146179A039800F095F90544E7
:1045E00004E030205246179990476D1C0099481EF0
:1045F00000900029F5DC08E0029802995246007804
:10460000491C0291179990476D1CBBF10001ABF159
:10461000010BF1DC5BE100F065F90544761C3078B4
:1046200000287FF40DAE19B02846BDE8F08F0000D9
:104630000928010030313233343536373839616278
:10464000636465660000000030313233343536373C
:10465000383941424344454600000000600700D419
:10466000062708F1070020F00700F0E80223804643
:1046700003F0004C5FEA0C0001D097A009E0200590
:1046800001D596A005E0E00701D095A001E0AFF2CA
:104690004C001390307823F0004365280CD006DCE2
:1046A000452809D046281DD047287FD13BE0662801
:1046B00018D067287AD136E00021112F01DB1120B4
:1046C00000E0781CCDE9000104A90CA8FFF7EEFC7E
:1046D000DDE90D010C9A4FF0000B07F10109109272
:1046E00000914EE04FF000400097CDE9011004A981
:1046F0000CA8FFF7DBFCDDE90D020C9B0F994FF0D6
:10470000000B91461093009211B9791C00EB01093E
:10471000B7EB090003D4C0F1FF3B07F10109A9EB96
:104720000700019042E0012F00DA01270021112F3C
:1047300001DD112000E03846CDE9000104A90CA8F4
:10474000FFF7B4FCDDE90D010C9A00914FF0000B6E
:10475000B946109221070FD4009A4A4503DA9146D0
:1047600001E0A9F10109B9F1010F05DD109AA9F1E4
:104770000101515C3029F4D0B84202DA10F1040F83
:1047800003DA0121CDE9011010E0002803DC8344A5
:10479000A9EB000102E0411C494500DD8946A0EB80
:1047A0000B00401C01904FF000400290200705D400
:1047B0000198484502DB4FF0FF30019000208DF852
:1047C0004B0002980DF14B07B0F1004F25D00220AD
:1047D0000C902B200D90029800280CDA4042029099
:1047E0002D200D9007E00A210298FBF782FD303161
:1047F000029007F8011D0C99481E0C900029F2DC6C
:1048000002980028EFD1791E0D980870307800F0DA
:10481000200040F0450007F8020D11A8C01BC01D84
:1048200002901398007800B1012000EB0901019873
:1048300001EBE071029801440398401A401E039076
:10484000E00306D453462146179A039800F05CF81B
:1048500005441398007818B15246179990476D1C7B
:10486000E00323D553462146179A039800F04CF8ED
:1048700005441BE0BBF1000F07DB0098584504DD41
:104880001098179910F80B0001E017993020524644
:10489000904701980BF1010B401E05F101050190B5
:1048A00004D12E205246179990476D1CB9F1000192
:1048B000A9F10109DEDC05E017F8010B5246179952
:1048C00090476D1C0299481E02900029F4DC534663
:1048D0002146179A03989EE62D0000002B00000049
:1048E000200000002DE9F041044600251E46174631
:1048F000880404D405E039462020B0476D1C641EAE
:10490000F9D52846BDE8F0812DE9F041044600259F
:104910001E469046C80301D5302700E020278804B2
:1049200004D505E041463846B0476D1C641EF9D5F4
:104930002846BDE8F0814A68002A06D00A68531C60
:104940000B6010704868401E48607047FDF700F922
:10495000FEF74CFDFEF7BCFBFEF7A4FBFEF74CFB9D
:10496000FEF71AFCFEF740FCFEF7C2FCFEF7E2FC85
:10497000FEF702FDFCF77EF8FCF7F2F8FCF7A2F870
:10498000FCE7010002000400060008000A000C0019
:104990001000200040008000000101010103070118
:1049A00000000804020408010101000000000000EA
:1049B00000000102030406070809000000000102CC
:1049C00003040000E4490008000000201400000077
:1049D0008C400008F849000814000020AC060000D4
:1049E0009C400008100000000100000000000000D2
:0849F0000024F40000000000A7
:04000005080001D915
:00000001FF
